:020000040800F2
:100000000018002085510008B1490008B3490008D4
:1000100000000000000000000000000000000000E0
:10002000000000000000000000000000B5490008CA
:100030000000000000000000B7490008B9490008AE
:100040000552000800000000055200080552000893
:100050000552000805520008055200080552000824
:100060000000000005520008055200080552000873
:1000700005520008C14900086D4A00080000000050
:1000800005520008000000000000000005520008B2
:100090000000000005520008055200080552000843
:1000A0000000000005520008000000000552000892
:1000B0000552000800000000000000007D4A000812
:1000C00010B5064C2378002B07D1054B002B02D02E
:1000D000044800E000BF0123237010BD7C01002014
:1000E0000000000060520008044B10B5002B03D044
:1000F0000349044800E000BF10BDC04600000000F6
:100100008001002060520008002243088B4274D313
:1001100003098B425FD3030A8B4244D3030B8B4208
:1001200028D3030C8B420DD3FF22090212BA030C11
:100130008B4202D31212090265D0030B8B4219D3F2
:1001400000E0090AC30B8B4201D3CB03C01A524112
:10015000830B8B4201D38B03C01A5241430B8B425A
:1001600001D34B03C01A5241030B8B4201D30B0343
:10017000C01A5241C30A8B4201D3CB02C01A52416A
:10018000830A8B4201D38B02C01A5241430A8B422D
:1001900001D34B02C01A5241030A8B4201D30B0216
:1001A000C01A5241CDD2C3098B4201D3CB01C01A30
:1001B000524183098B4201D38B01C01A524143093A
:1001C0008B4201D34B01C01A524103098B4201D328
:1001D0000B01C01A5241C3088B4201D3CB00C01A95
:1001E000524183088B4201D38B00C01A524143080D
:1001F0008B4201D34B00C01A5241411A00D2014632
:10020000524110467047FFE701B5002000F006F8A4
:1002100002BDC0460029F7D076E770477047C04658
:100220008446081C6146FFE71FB500F0C1F80028AE
:1002300001D40021C8421FBD10B500F043F8404270
:10024000013010BD10B500F0B3F8002801DB00202C
:1002500010BD012010BDC04610B500F0A9F800285F
:1002600001DD002010BD012010BDC04610B500F01A
:1002700051F8002801DC002010BD012010BDC0464F
:1002800010B500F047F8002801DA002010BD012069
:1002900010BDC0469E2110B5C905041CFFF7F0FF34
:1002A000002803D1201C00F0C9FB10BD9E21201C9A
:1002B000C90500F0FFF900F0C1FB80231B069C4636
:1002C0006044F2E770B542004E024C0045026D0AF0
:1002D000120EC30F760A240EC90FFF2A0FD0FF2C6F
:1002E00011D00120A24200D070BDB542FCD18B429A
:1002F0000DD0002AF8D12800451EA841F4E70120BE
:10030000002DF1D1EBE70120002EEDD1E9E700202F
:10031000EAE7C04670B54A004E02450244006D0A45
:10032000240EC30F760A120EC90FFF2C15D0FF2A18
:100330000ED0002C15D1002A01D1002E1CD0002D8A
:1003400014D08B4227D00220013B1840013870BDE9
:10035000002EEED002204042F9E7002DFAD1FF2A0C
:100360000ED0002A0ED1002EEDD00BE00123013972
:10037000994308000130EAE70020002DE7D0E2E7CA
:10038000002EE7D18B42DED1944205DD0221581EBA
:1003900008400138DBE70024A24204DCB542D2D891
:1003A0000020B542D3D2581E012398430130CEE736
:1003B00030B5420044024D02C30F4800640A120ED9
:1003C0006D0A000EC90FFF2A12D0FF280CD0002A98
:1003D00012D1002819D1002D17D1002C2BD00220CA
:1003E000013B1840013826E0002DF0D0022022E029
:1003F000002CFBD1FF281FD000281FD1002D1DD1BC
:100400000220013B1840013815E0002C0ED08B4231
:10041000E5D10022904204DCAC42E0D80020AC429E
:1004200009D2581E01239843013004E00123013909
:1004300099430800013030BD002DD7D18B42CED179
:100440008242E7DD0221581E08400138F3E7C0462A
:10045000F0B54E4657464546DE46E0B543025B0AD8
:10046000450083B00F1C99462D0EC60F002D57D0A6
:10047000FF2D24D08020DB00C004184300238146D8
:100480009A469B467F3D7C027A00FB0F640A120E5F
:10049000984623D0FF2A4BD0E30080240020E404B8
:1004A0007F3A1C43AD186B1C474601935346774077
:1004B0003A000F2B48D87D499B00CB589F46002B14
:1004C00000D085E008339A46063B9B467C027A00C2
:1004D000FB0FFF25640A120E9846DBD1002C00D0DA
:1004E00090E0524601231A4392460120DBE74C4636
:1004F00058461700022824D0032800D1CFE000225C
:10050000002301284DD15802D205400AFF071043AD
:10051000384303B03CBC90469946A246AB46F0BD7A
:10052000002B5BD104239A46033B00259B46AAE798
:10053000FF35002C60D1524602231A439246022016
:10054000B1E7FF220023DEE74B461B0C9C464B46DF
:100550002604360C180461463300220C6446000C55
:1005600043434E435043544380191A0C1218964289
:1005700003D9802149028C4664441B041B0C1004DF
:10058000C01883015E1EB341800E1843130C1B1963
:100590009B0103431C00230179D5012362081C4001
:1005A0001443019A7F32002A4DDD630704D00F23E4
:1005B0002340042B00D00434230103D53C4B019A83
:1005C0001C408032FE2ABCDCA3015B0AD2B29AE74F
:1005D0000C239A46093BFF259B4654E7180001F07F
:1005E000FBF84A46431F76259A4000236D42914608
:1005F0002D1A9A469B4646E7524603231A439246D3
:10060000032050E7200001F0E7F8431F2D1A9C401B
:10061000763D002047E780230027DB03FF2272E7B7
:10062000424666E74C463200584662E780234A4617
:10063000DB031A4222D01C4220D123435B025B0A17
:100640004746FF225FE701239A1A1B2A21DC230079
:100650000199D3409E318C401A0023005C1EA341B7
:1006600013435A0704D00F221A40042A00D004333F
:100670005A0111D49B015B0A002244E780234A46B9
:10068000DB0313435B025B0A3700FF223BE7019564
:1006900087E70022002336E70122002333E7802387
:1006A000DB0323435B025B0AFF222CE710530008A5
:1006B000FFFFFFF7F8B54746CE464400C20F80B5AE
:1006C00047024802400A8446664648007F0A240ED4
:1006D000F60025009046FB00000EC90FB146FF282A
:1006E00000D185E001267140261A914257D0002E94
:1006F00043DD002800D07FE04946002900D1AAE070
:10070000013E002E00D0F7E05B1A5A0100D48BE0C6
:100710009B019C09200001F05FF805388440854268
:1007200000DDD3E0451B230020200135EB40451BB5
:10073000AC40621E94412343072400251C40012243
:1007400041460A40002C04D00F211940042900D052
:100750000433590100D480E00135ECB2FF2D00D004
:10076000A3E0FF2400235B02E405580AD2072043DC
:1007700010430CBC90469946F8BD002E74D1601C05
:10078000C0B2012800DCA7E04A469C1A620100D5ED
:10079000B6E0002CBED1002200240023E3E7002EA7
:1007A00000DC85E0002846D0FF2C49D08022484656
:1007B000D2041043814601221B2E09DC20204C4626
:1007C000801B84404A462000F240441EA041024360
:1007D0009B185A0128D50135FF2D00D1A8E0012230
:1007E000072494491A405B080B4013431C40A6E7BA
:1007F000002E00D078E775E7FF2C54D080224946C0
:10080000D2041143894601221B2E09DC20214846CF
:10081000891B88404A460100F240481E81410A4334
:100820009B1A5A0100D573E7012241460A40590735
:1008300000D089E711E04846002858D1FF2C0CD1A0
:10084000DB08002B00D18CE78020C00303435B0250
:100850005B0AFF2487E7FF2C25D0DB08FF2DF0D0B3
:100860005B025B0AECB27EE7002C4DD0FF2818D06B
:100870008024E404724223431B2A00DDC4E01C00F0
:100880002025D440AA1A93405A1E934123434A4636
:100890000500D31A884638E7721CF8D0F243FF28C7
:1008A000EAD10A004B46FF25D7E79B015B0A5AE7CE
:1008B000002E41D1651CE9B2012945DDFF2D00D193
:1008C0004FE707244B445B081C4038E707225A4B8C
:1008D0002D1A2340144032E7002C1DD1002B7AD171
:1008E0004B46002B00D191E00A000025B5E7013E00
:1008F000002E19D14B446CE7FF2C84D1FF25ACE7C7
:100900004A468846D41A05E7002BC5D10A00FF28BD
:10091000C8D005004B46A0E7002B49D14B46002B21
:1009200077D00A00FF2598E7FF2C00D043E787E740
:100930000A00FF24002316E7002C15D1002B57D105
:10094000FF28E6D14B467BE7002C20D1002B57D067
:100950004946002953D04B445A0168D50724364AEA
:100960001C4001251340EAE6FF28EBD08022D20488
:10097000764213431B2E53DC2025AD1B1A00AB40DF
:10098000F2405C1EA34113434B44050021E7002BBA
:10099000D8D04946002900D152E78021C9030F422F
:1009A00000D14DE76046084200D049E74B4647E793
:1009B0004846FF25002800D14FE78022D203174286
:1009C00004D06046104201D14B4688460122414680
:1009D000FF250A4041E7484600281FD01A1A500157
:1009E00020D54A460724D31A1C4088460025A6E68F
:1009F000741CC9D0F643FF28BCD14B4620E799466A
:100A00004B460025DB082BE7012340E700220023AB
:100A1000A9E680230022DB03FF24A4E600251CE7CF
:100A20000123B1E7002AF1D013000025FCE60025E0
:100A3000FAE6C046FFFFFF7DFFFFFFFB41024200D9
:100A4000C30F490A120E00207E2A0DD99D2A0CD808
:100A5000802000040143952A0ADC9620821AD140A6
:100A60004842002B00D108007047034A9818FBE762
:100A7000963A9140F4E7C046FFFFFF7F70B500282B
:100A80003DD0C317C5185D40C40F280000F0A4FE78
:100A90009E22121A962A07DCD2B2082833DD0838C3
:100AA00085406802400A23E0992A0BDD05232900CE
:100AB0001B1AD94003001B339D402B005D1EAB4128
:100AC00019430D00052801DD431F9D402B000F49F0
:100AD0000B406E0709D00F263540042D05D0043396
:100AE0005D0102D59F220B40121A9B01580AD2B217
:100AF0004002D205400AE4071043204370BD0024A1
:100B000000220020F4E76802400AF1E7FFFFFFFB44
:100B1000F0B55746DE464E464546E0B583460700EB
:100B20000E03480085B092461C00360B400DCD0FD9
:100B3000002800D19DE0954B984239D08023F600E3
:100B40001B041E43924A7B0F33439946944603008D
:100B50006344009300230026FF00029323031B0B32
:100B600098466300E40F52465B0D019400D1B3E058
:100B700086498B4200D19EE04246D1008022120479
:100B80000A435146490F11438B46814952468C46D0
:100B900000996344CB1A0021D20000932B006340DC
:100BA0009A460F2E00D905E17A4BB6009B599F4615
:100BB0005B463343994600D0B8E00223082600275D
:100BC00000900293CAE7CB463A0002990195019B37
:100BD0009A46022927D0032900D180E2012944D076
:100BE0006D49009B8C4663441C00002C38DD530784
:100BF00000D013E2D2085B46DB0109D55946674BAA
:100C000019408B468021C9008C46009B63441C0020
:100C1000634B9C4207DC5B4664055F075B0217433E
:100C20001B0B620D02E000230027584A00211B0322
:100C30001C0B0B0D1B05234314055A4A38001340A7
:100C40001C4353466400DB0764081C43210005B0C5
:100C50003CBC90469946A246AB46F0BD01225242AA
:100C600001231B1B382B00DCADE1002200230027F1
:100C7000DCE75B46334399465ED0002E00D18AE123
:100C8000300000F0A9FD03000B3B1C2B00DD7BE1D5
:100C90001D22D31A5A460100DA4008398E4013004B
:100CA0005F46334399468F403F4B00261B1A009303
:100CB0000023029352E7414653460B433B499B4670
:100CC0008C46009B634400935B46002B3BD1022380
:100CD00000221E43022161E7434613439B4637D05F
:100CE0004346002B00D162E1404600F075FD030051
:100CF0000B3B1C2B00DD53E102004146083A9140BA
:100D000088461D21CB1A5146D9400B0041460B4362
:100D10009B46534693401A00009B25499C466044DD
:100D200003008C4663440093002137E70323B14658
:100D300000900C26029311E7002300930133042650
:100D4000002702930AE70323C3461E43032125E736
:100D500001331E430022012120E700239A4680230D
:100D600000271B03094A61E7802349461B031942F8
:100D700000D1E2E05946194200D0DEE00B431B03EC
:100D800017001B0BA246014A50E7C046FF070000B0
:100D900001FCFFFF50530008FF030000FFFFFFFEB0
:100DA000FE070000FFFF0F800DFCFFFF01F8FFFFB3
:100DB000F3030000D94500D9CBE000D1C6E03C00E8
:100DC00048460027009B013B00935B46160E1B0222
:100DD0001E431302984633041B0C9946310C0191B3
:100DE000FFF718FA4A4642430B04210C0500194349
:100DF0008A4207D98919013D8E4203D88A4201D916
:100E0000851E8919881A0199FFF704FA09048C468E
:100E10004A46210464464243090C030021438A42A6
:100E200004D98919013B8E4200D8F1E02D041D43FD
:100E3000AB464346891A4246280C12041D0C5B46F9
:100E4000140C22001B041B0C5A4303946B434443B1
:100E5000029568431B19150CEB189C4203D980249A
:100E60006402A44660441C0C15041B042D0C2018BD
:100E70005D19814277D373D00C1AA24A7D1BAF4211
:100E8000BF419446009B7F426344E01B1C008642A6
:100E900000D1DBE00199FFF7BDF94A4642430B045C
:100EA000290C070019438A4207D98919013F8E424C
:100EB00003D88A4201D9871E8919881A0199FFF738
:100EC000A9F909044A46894629044D464243090CBA
:100ED000030029438A4207D98919013B8E4203D86E
:100EE0008A4201D9831E89193F04891A3A00039F57
:100EF0001A43380013041B0C584381460298150C02
:100F00006F43434345434846000C8446DB19634422
:100F10009F4203D9802040028446654448461F0C06
:100F200000041B04000C7D191818A94200D284E0AB
:100F300000D17FE001231A4357E680234A461B0372
:100F400013431B031B0BAA466F4A6FE6BA4200D934
:100F500035E74B46DC0758087B081C43FF0734E79E
:100F60000024AF4289D247444745A4415B466442CE
:100F7000A4196418013BA6421ED2A0426DD800D12C
:100F8000B6E0241A9B4678E703005A46283B9A406D
:100F90000027914688E6584600F01EFC203072E695
:100FA00003005246283B9A4093460022B4E650463E
:100FB00000F012FC20309AE6A642E2D1B845DCD916
:100FC000341A9B4659E71F2B65DC504C0099A44608
:100FD0005C46614408008C4011008240D940501E9C
:100FE00082410C4314435A46DA401300620709D089
:100FF0000F222240042A05D02200141D9442894168
:1010000049425B181A0262D50122002300270DE62F
:101010008A4200D80AE7831E891907E70F23134085
:10102000042B00D1E6E5171D9742924153429B44A1
:10103000FA08E0E5002800D1D7E57118531EB14247
:1010400027D3A94215D358D01A0073E7002B00DC30
:1010500004E6012300229B44CDE502234744474593
:1010600089415B429C46494289190C19E344241A80
:1010700003E743465F0047459B41B8465B429E19E4
:10108000023A8919A94200D054E7404500D051E7FF
:10109000ABE51A00F6E71F215F4649420C1BE7400B
:1010A000202B07D01A49009B8C46634418005B46EE
:1010B00083401A43501E82413A43072700231740BA
:1010C00009D00F21002311401400042995D12200DA
:1010D0005F075B021B0BD20817430022A6E58023A3
:1010E00059461B030B431B0317001B0B064A9DE5C8
:1010F000BD42B2D89B460024BFE68045B9D31A0052
:10110000C3E7C046FF030000FF0700001E04000005
:101110003E040000F0B55746DE464E464546E0B573
:10112000834606000F03480087B092461D003F0B20
:10113000400DCC0F002800D16FE0DE4B984238D034
:101140008023FF001B041F43730F3B430193DA4BC3
:101150000027994600239B46F60081442B03690033
:101160001B0B52469846490DED0F002900D185E032
:10117000D04B994200D173E04346DA0080231B0430
:1011800013435246CC48520F844613435246002024
:101190006144D20089442100694000918C460121BC
:1011A00049448A460F2F00D990E0C449BF00CF5967
:1011B000BF465B463B43019300D06AE10223082708
:1011C000002681469B46C9E732005846019B61468E
:1011D0000091022800D175E0032800D1FEE101282A
:1011E00000D02CE100230027002600253F032A0D14
:1011F0003F0BB34812053A4302401B051343009AC4
:101200005B00D1075B080B433000190007B03CBC02
:1012100090469946A246AB46F0BD5B463B430193E0
:1012200000D12FE1002F00D1A5E1380000F0D4FA61
:1012300003000B3B1C2B00DD96E11D22D31A5A46FE
:101240000100DA405E4608398F4013008E403B4370
:1012500001939C4B00271B1A994600239B467DE770
:10126000414653460B4393498C46E144002B00D042
:101270001AE102220220174300228CE7134300D117
:101280000DE14346002B00D181E1404600F0A4FA75
:1012900002000B3A1C2A00DD72E1010043460839C6
:1012A0008B4098461D239A1A5346D3401A00434652
:1012B000134352468A404946081A82498946814466
:1012C000002068E77B4B002700268EE7140C1204F1
:1012D000120C1100370C3604350C794328008C466B
:1012E0002E0060436044834656432100300C804604
:1012F0005846794340440291844506D98846802166
:1013000049028C46E044414602913604010C360CF9
:1013100000048B4681191E0C1B041B0C0391190041
:1013200079438C46280075436544A8465843050C0C
:1013300045447743A94203D9802149028C4667443A
:10134000290C8C4639000004000C2D042D18614432
:10135000AB4405915946049101990F043F0C080CC8
:10136000390051434243904602008C46090C8B469B
:1013700062437C4344445C44A04503D98021490234
:1013800088464244210C884661460904090C8C4673
:1013900039005943434370437E430F0CF61824042D
:1013A000BE19644442448C46B34203D980235B0295
:1013B00098464044029B61469846049B3704434448
:1013C0009B46AB45AD416B420D0405992D0C8C46F7
:1013D0007F196744FD18A8465D462D19A542A44112
:1013E00093466442A446C344DC448F42BF419845BF
:1013F0009B4193459241A445A4415B427F421F43D8
:10140000360C52426442BF192243BF186246381854
:101410004302D20D039913436A020A43501E8241CC
:101420006146ED0D2A434E023243D90100D4B3E0A8
:101430000126500832400243DE0732435B08224C4B
:101440005444002C62DD510709D00F2010400428BD
:1014500005D0101D9042924152429B180200D901C2
:1014600004D580241948E4000340544418488442B9
:1014700000DD27E75E075B02D2081F0B63051643FA
:101480005B0DB2E6002399460133042700269B46F4
:1014900064E60323019781460C279B465EE6012202
:1014A00001201743002276E6032303201F4343460F
:1014B00071E6C046FF07000001FCFFFF90530008E3
:1014C000FFFF0F800DFCFFFFFF030000FFFFFFFE8B
:1014D000FE0700000023802700933F030026434BB4
:1014E00083E6019B3200A446584670E6AC466EE6A1
:1014F000802701993F0339422DD03B422BD11F4316
:101500003F033F0B00951600384B6EE601252D1B5F
:10151000382D00DD66E61F2D40DC35481C005044A8
:10152000160082408440EE40501E824134431443F2
:10153000EB40620709D00F222240042A05D0220086
:10154000141D9442804140421B181A023ED50123CB
:101550000027002649E68027019B3F031F433F03E6
:101560003F0B0094214B40E603005A46283B9A402B
:10157000002601926DE6584600F02EF9203057E61D
:1015800003005246283B9A401300002293E650463F
:1015900000F022F920307BE6CA4650E71F201E00EB
:1015A0004042041BE640202D03D0124C5444A3407B
:1015B0001A43501E8241324307260027164009D0A5
:1015C0000F200023104014000428B9D122005E0728
:1015D0005B021F0BD2081643002306E680273F0359
:1015E0001F433F033F0B1600004BFEE5FF070000C3
:1015F0001E0400003E04000070B500282DD0C31763
:10160000C5185D40C40F280000F0E6F8154B1B1A02
:101610005B055B0D0A2815DD0B38854000222D0384
:101620002D0B002110002D030A0D2D0B12052A434E
:101630000D4D1B052A4013435B00E4075B08234361
:10164000190070BD02002900153291400A000B21DB
:10165000081AC5402D032D0BE3E7002400230025C5
:101660000022DEE71E040000FFFF0F8010B5041EFD
:1016700025D000F0B1F8144B1B1A5B055B0D0A284E
:1016800012DD0B38844000222403240B00211000BB
:1016900024030A0D240B120522430C4C1B05224087
:1016A00013435B00590810BD020021001532914020
:1016B0000A000B21081AC4402403240BE6E7002388
:1016C00000240022E2E7C0461E040000FFFF0F8056
:1016D000F0B54C00640D0B03621C5B0A460F52050B
:1016E000C90F1E43C500520D012A29DD374BE718EB
:1016F000FE2F1CDC002F3BDD8001431E984107229A
:10170000F3006D0F03432B431A40002A04D00F222D
:101710001A40042A00D004338022D2041A4024D074
:101720000137FAB2FF2F02D09B01580A01E0FF22D5
:1017300000204002D205400AC90710430843F0BD0B
:101740003543002C04D1002D0AD100220020F0E7FF
:10175000002DECD08020C0033043FF22E9E70024B5
:1017600000235B02580AE2B2E3E7DB083C00F8E73B
:101770003B001733F3DB80231B0433431E26F61B89
:101780001F2E14DD02225242D71B1A00FA40170006
:10179000202E04D00E4A94466444A3401D432B00DF
:1017A0005D1EAB4107223B431A400027ADE7094AC3
:1017B0002800A218954093406C1EA541F0400722D6
:1017C0002B4303431A4000279FE7C04680FCFFFFDE
:1017D000A2FCFFFF82FCFFFF1C2101231B04984297
:1017E00001D3000C10391B0A984201D3000A0839B2
:1017F0001B09984201D30009043902A2105C401869
:101800007047C0460403020201010101000000000C
:101810000000000010B5040001F0F6FDFA21890077
:10182000FEF772FC00F072F8012000222100404215
:1018300000F032F8002010BD10B5064A13681021E0
:101840000B4313600020FFF7E5FF03F06BF8002067
:1018500010BDC04600200240024A136801331360E5
:101860007047C046D0030020014B18687047C0463F
:10187000D003002030B583B00190FFF7F5FF0500DD
:10188000019C631C00D00134FFF7EEFF401BA04217
:10189000FAD303B030BD000070B5002811DB840816
:1018A000134DC034A400625903231840C000FC3318
:1018B0001E008640B24389010B40834013436351AD
:1018C00070BDC0B20F220240083A92080632920060
:1018D000084BD3185D6803242040C000FF22140089
:1018E0008440A54389010A4082402A435A60E7E7C1
:1018F00000E100E000ED00E01F2318401E3B8340A4
:10190000014A13607047C04600E100E001380A4B0D
:1019100098420FD8094A50600948036A1B021B0A03
:10192000C02109060B430362002393600733136051
:10193000002070470120FCE7FFFFFF0010E000E0FF
:1019400000ED00E0F0B5C64600B582B0002338E0F7
:10195000032600E00026AE4035003D430234A400DB
:10196000554EA551554C25684246D4432E0026407D
:101970004A68D20302D5424615432E004F4D2E60D1
:101980006D682E0026404A68920302D542461543F0
:101990002E004A4D6E60AD682E0026404A68D20285
:1019A00002D5424615432E00444DAE60ED682C40F2
:1019B0004A68920202D542462A4314003F4AD46044
:1019C00001330A681400DC4071D001259D402A4093
:1019D0009046F5D04C68022C01D0122C0ED1DC08B8
:1019E0000834A400275807261E40B6000F22B24034
:1019F00097430A69B24016003E43265002685F00D2
:101A000003242600BE40F643324094464A68144000
:101A1000BC406246144304604C68621E012A03D92C
:101A2000112C01D0122C10D184683440A446CC680B
:101A3000BC406246144384604468AC434A6812095F
:101A4000012515409D4025434560C46826408C68AB
:101A5000BC403443C4604A68D200B1D5184DAE6969
:101A600001242643AE61AD692C400194019C9C0881
:101A7000A51CAD00104EAF5903251D40AD000F262B
:101A8000AE40B7439026F605B04200D162E70D4E56
:101A9000B04208D00C4EB04207D00C4EB04200D13C
:101AA00056E7052657E7012655E7022653E702B019
:101AB00004BC9046F0BDC046000001400004014057
:101AC000001002400004004800080048000C0048D4
:101AD000002A01D1816270478161FCE770B5041E64
:101AE00058D0EA23FF33C35C002B05D0EA23FF3331
:101AF0000322E254002218E0E933FF330022C254EB
:101B000003F06CF9F2E7D100891A8B00E318190091
:101B100029310120087001390A7018002B3000218A
:101B2000017059639963D963013260689042EAD8C1
:101B3000002214E0D100891A8B00E3181D000A3539
:101B4000FF3500212970013D2A70033529700935C0
:101B50002960043529601D33FF331960013290423A
:101B6000E8D8402301222168CA5200222168CA52C3
:101B70004421206842520C3120684252064A2168B2
:101B8000CA5200221C3BE2540122EA23FF33E254F2
:101B9000002070BD0120FCE700BFFFFF0168582254
:101BA0008B5A034803439BB28B5200207047C046B8
:101BB0000080FFFFF4235B00C35C012B13D0F423F0
:101BC0005B000122C25400290AD19D3BFF3B7F32BA
:101BD0000168CA52F4235B000022C25400207047FF
:101BE0002423C154F6E70220F9E70000F0B54DB216
:101BF000002D00DA6AE07F240C40E600361BB400BA
:101C00000934FF3404197F2631402170ED0F6570CF
:101C1000E260E370F4235B00C35C012B00D18FE131
:101C2000F4235B000122C254E378012B00D17CE055
:101C3000002B53D0022B5ED0032B00D168E0237819
:101C40009A0001688C4662441188BE4D29401943B0
:101C5000BD4B0B439BB21380A37A002B00D0BEE098
:101C60006378002B00D16DE0A28805685023EB5A01
:101C70002178C9005B185B198021C9008C46634438
:101C800001218A431A8023789B00026894466344AA
:101C90001A88520606D51A88AA491140AB4A0A4347
:101CA00092B21A802178890003689C4661440B88AF
:101CB000A74A134020225A40A34B13439BB20B80E8
:101CC000F4235B000022C2540020F0BD7F240C40AE
:101CD000E600361BB4002834041994E722789200F9
:101CE00003689C46624413889A4919409A4B0B43F7
:101CF0009BB21380A3E72278920003689C4662445B
:101D0000138894491940904B0B439BB2138096E77C
:101D10002278920003689C46624413888D491940DA
:101D20008E4B0B439BB2138089E7227892000368A5
:101D30009C466244138887491940894B0B439BB2E8
:101D400013807CE7A28805685026AB5B2178C90028
:101D50005B185B1983498C46634401218A431A80CE
:101D600001688B5B2278D2009B185B187E4A9446F0
:101D70006344E1683E2929D94A0992B2C90601D1D2
:101D8000013A92B2920292B278490A431A802378B9
:101D90009B000268944663441A88520406D51A8848
:101DA00068491140724A0A4392B21A80227892001E
:101DB00003689C46624411886E4B1940C0239B0106
:101DC0005940614B0B439BB2138079E74A0892B2AA
:101DD000C90701D5013292B292021A80D7E7227860
:101DE000920003689C466244138863491940634B20
:101DF0000B439BB21380E28805685027EB5B217888
:101E0000C9005B185B198021C9008C466344012618
:101E1000B2431A8022890568EB5B2178C9005B1800
:101E20005B1950498C466344B2431A806378002B97
:101E300044D123789B000268944663441A88520474
:101E400006D51A883F491140494A0A4392B21A807E
:101E500023789B000268944663441A88520606D58C
:101E60001A8838491140394A0A4392B21A802278B6
:101E7000920003689C466244138832491940334BF0
:101E80000B439BB213802178890003689C46614410
:101E90000B88384A1A40C0239B0153402A4A1343F7
:101EA0009BB20B8023789B0001688C4663441988A1
:101EB000274C21400A4392B21A8001E723789B0005
:101EC0000268944663441A88520406D51A881D494C
:101ED0001140274A0A4392B21A8023789B00026875
:101EE000944663441A88520606D51A88154911404B
:101EF000164A0A4392B21A802278920003689C46DE
:101F0000624413880F491940194B0B439BB213804D
:101F10002178890003689C4661440B880C4A134071
:101F2000094A13439BB20B8023789B0001688C46BF
:101F3000634419880F4C21400A4392B21A80BFE6CD
:101F40000220C2E60F0F00008080FFFFC080FFFF6D
:101F5000BF8FFFFF0F0900008082FFFF8086FFFF19
:101F60008084FFFF04040000060400000080FFFFDF
:101F700080C0FFFF8FBFFFFF0F0E00008081FFFFBB
:101F800010B54AB2002A3DDB7F230B40DC00E41A87
:101F9000A3000933FF33C3187F2421401970D20FE7
:101FA0005A70F4225200825C012A00D1D5E0F4225A
:101FB0005200012181549A7A002A47D15A78002A86
:101FC00028D01A78920001688C466244118849062C
:101FD00006D51188624C0C406249214389B21180B8
:101FE0001A78920003689C46624413885E4919403F
:101FF0005E4B0B439BB21380F4235B000022C25460
:10200000002010BD7F230B40DC00E41AA30028331E
:10201000C318C1E71A78920001688C46624411889F
:10202000490406D511884E4C0C405149214389B2D0
:1020300011801A78920003689C46624413884D49C7
:1020400019404A4B0B439BB21380D5E75A78002ABC
:1020500041D11A78920001688C4662441188490483
:1020600006D511883E4C0C404149214389B211806C
:102070001A78920001688C4662441188490606D598
:102080001188374C0C403749214389B211801978A7
:1020900089000268944661440A88314C1440314AF0
:1020A000224392B20A801C78A400026894466444D9
:1020B000228830490A402D490A4392B222801B7877
:1020C0009B000268944663441A88274C22401143BF
:1020D00089B2198090E71A78920001688C466244B0
:1020E0001188490406D511881D4C0C402049214314
:1020F00089B211801A78920001688C466244118876
:10210000490606D51188164C0C401649214389B260
:102110001180197889000268944661440A88104C3D
:102120001440134A224392B20A801C78A400026829
:102130009446644422880C490A400C490A4392B2EE
:1021400022801B789B000268944663441A88094CDD
:102150002240114389B219804EE7022051E7C04660
:102160000F0F0000C080FFFFBF8FFFFF8080FFFFC9
:1021700080C0FFFF8FBFFFFF70B57F242140CD00DF
:102180006D1AAC00041925001935FF352A602200AC
:102190001D32FF321360083500222A60173D2A7075
:1021A00022000932FF3211701534FF342268934245
:1021B00041D9CD006D1AAC0004191D34FF349B1AAF
:1021C0002360CC00641AA3001C00C3181333FF3330
:1021D0001B78002B42D105685033EB5A041909349F
:1021E000FF342478E4001B195B195F4CA446634458
:1021F0003E2A2AD95409A4B2D20601D1013CA4B284
:10220000A402A4B2594A14431C800268CB00591A94
:102210008B00C0180930FF3003789B00D21811885A
:10222000534B1940C0239B015940524B0B439BB267
:102230001380002070BDCC00641AA20082181D32E9
:10224000FF32002414601A00BBE75408A4B2D2077E
:1022500001D50134A4B2A4021C80D6E7CC00641AD4
:10226000A3001C00C3180A33FF331B78002B23D1B3
:1022700005685033EB5A04190934FF342478E4001C
:102280001B195B193C4CA44663443E2A0BD95409E4
:10229000A4B2D50601D1013CA4B2A402A4B2334D2C
:1022A0002C431C800AE05408A4B2D50701D50134A0
:1022B000A4B2A4021C8001E0012B24D0CC00641A3B
:1022C000A3001C00C3180A33FF331B78002B35D141
:1022D00005685033EB5A04190934FF342478E400BC
:1022E0001B195B19204CA44663443E2A1DD954098E
:1022F000A4B2D20601D1013CA4B2A402A4B21B4AEA
:1023000014431C8081E705684F33EB5ACE00761AE0
:10231000B40004190934FF342478E4001B195B1954
:10232000154CA44663441A80C8E75408A4B2D207E7
:1023300001D50134A4B2A4021C8066E7012B00D0B1
:1023400063E705684F33EB5ACE00761AB4000419E0
:102350000934FF342478E4001B195B19024CA446AD
:1023600063441A8051E7C046060400000080FFFF66
:102370008FBFFFFF8080FFFF020400007F23194012
:10238000CB00591A8B00C0182130FF3000887047ED
:1023900010B5F4235B00C35C012B50D0F4235B0029
:1023A0000122C2544CB2002C21DBCA00521A930005
:1023B0000933FF33C31801229A707E32114019701D
:1023C000E40F5C7000291BD1890003689C466144BE
:1023D0000A881C4B1A401C4B5A401C4B13439BB29F
:1023E0000B80F4235B000022C254002010BD6A3B26
:1023F000FF3B0B40DA00D21A93002833C318DAE708
:10240000002C0DD0890003689C4661440B88104A5B
:10241000134010225A400D4B13439BB20B80E0E750
:10242000890003689C4661440A880A4B1A4080234D
:102430005B015A40054B13439BB20B80D1E702204E
:10244000D4E7C046BFBFFFFF101000008080FFFF31
:10245000BF8FFFFF8FBFFFFF10B54AB2002A3BDBE3
:10246000CC00641AA3000933FF33C31800249C7006
:102470007F3421401970D20F5A70F4225200825CCE
:10248000012A50D0F4225200012181545A78002AA6
:102490002AD01A78920001688C4662441188490655
:1024A00006D51188214C0C402149214389B2118065
:1024B0001978890003689C4661440B881D4A1340C3
:1024C00030225A401C4B13439BB20B80F4235B0019
:1024D0000022C254002010BD7F230B40DC00E41A10
:1024E000A3002833C318C1E71A78920001688C460C
:1024F00062441188490406D511880C4C0C400F49E0
:10250000214389B211801A78920003689C46624484
:1025100011880B4B1940C0239B015940064B0B43BC
:102520009BB21380D2E70220D5E7C0460F0F000010
:10253000C080FFFFBF8FFFFF8080FFFF80C0FFFFD5
:102540008FBFFFFF10B501335B0812188020C00059
:102550008446624407E008784C78240204431480DF
:102560000231013B0232002BF5D110BDF8B5050058
:102570007F240C40E000001B810069188A63CB6354
:1025800000220A640A00293201201070013A1470F6
:102590004F6BBB4234D9DB1BCB63E200121B9300B1
:1025A0001A00EB1832331B78002B31D02868E20078
:1025B000121B9300EB1828331B789A00821812889C
:1025C000520675D5E600361BB200AA1829321278D9
:1025D000002A3BD15032825ADB00D3181818634BC3
:1025E0009C4660443E2F28D97B099BB2FA0601D154
:1025F000013B9BB29B029BB25D4A1343038027E0E1
:10260000E100091B8A00AA180021D1631F00C4E75A
:10261000BFB2AE18B28D3B00B16B2868FFF792FFD6
:102620002A685023D35A28363178C9005B189B1882
:10263000504A944663441F8084E07B089BB2FA07AB
:1026400001D501339BB29B02038001E0012A25D012
:10265000E200121B9300EB181A8EBBB2E100091BBB
:102660008E00AE19B16B2868FFF76CFF29363378FE
:10267000002B56D0012B65D1E200121B9300EB1802
:1026800028331A7892002B689C46624413883A4992
:1026900019403A4B0B439BB2138053E04F32825A9E
:1026A000DB00D3181818314B9C4660440780CFE7F5
:1026B000E600361BB200AA1829321278002A1ED171
:1026C0005032825ADB00D31818182A4B9C466044BB
:1026D0003E2F0BD97B099BB2FA0601D1013B9BB27D
:1026E0009B029BB2224A134303800AE07B089BB201
:1026F000FA0701D501339BB29B02038001E0012A56
:1027000005D0E200121B9300EB18DA8DA5E74F32DB
:10271000825ADB00D3181818164B9C466044078079
:10272000EFE7E200121B9300EB1828331A789200AF
:102730002B689C46624413880F491940104B0B4389
:102740009BB213802968E3001C1BA300ED182835F9
:102750002B789B00C9180B880A4A134030225A4034
:10276000094B13439BB20B800020F8BD0604000008
:102770000080FFFF020400000F0F000080C0FFFF79
:10278000C080FFFFBF8FFFFF8080FFFF30B55D0877
:1027900012188020C0008446624406E014880C7041
:1027A000240A4C70013D02320231002DF6D1DB07C4
:1027B00001D513880B7030BDF0B583B0050001ABB7
:1027C00000221A8028684423C35A9BB26A46D380E9
:1027D0001BB2002B00DB41E26B46DC880F231C4060
:1027E00000D0B7E06B4606331B88DB064DD5038867
:1027F0009BB201AA138013881B0576D401AB1B88FA
:102800001BB2002BDEDA0388CC4A13400380286811
:102810005023C35A84225200AA5CD2009B181B1872
:10282000C74A944663441B889B059B0D2A000932C6
:10283000FF329361002B00D078E00021280002F0E5
:10284000F7FA2B6850229A5A9A18BD4B9C4662445C
:102850002B000933FF33D9683E2972D94B099BB24B
:10286000C90601D1013B9BB29B029BB2B5490B4308
:10287000138029680A88B44B1A40C0239B015A4030
:10288000B24B13439BB20B809CE70388B04A1340C2
:10289000038029685023CB5A2822AA5CD2009B18B7
:1028A0005B18AC4A944663441B889B059B0D2B64C4
:1028B000AA6B94466344AB630021280002F0C7FA78
:1028C0002423EB5C002B00D17CE7EB6B002B00D0CA
:1028D00078E72422AB5C802149420B43DBB2CC3148
:1028E000286843520023AB546CE75023C35A842218
:1028F0005200AA5CD2009B181B18914A944663446C
:102900001B889B059B0D2A000932FF329361290029
:10291000ED31FF319288FFF739FF2A681388874924
:102920000B401380280002F079FA4BE714009288DC
:102930002169FFF72BFF2369A26994466344236151
:102940007BE74B089BB2C90701D501339BB29B02C1
:1029500013808EE7A600801903889BB201AA13801A
:1029600013881BB2002B31DB01AB1B881B0600D484
:1029700028E72B689C4666443388754A13403380A9
:10298000E200121B93001A00EB1832331B78002B65
:1029900000D0E5E028685033C35AAA181100283146
:1029A0000978C9005B181B186A498C4663441B8868
:1029B0009B059B0D136400D102E1E200121B910004
:1029C00069188A8D896BFFF7BDFDF9E003885B4AC2
:1029D00013400380E200121B93001A00EB1813331C
:1029E000FF331B78002B1DD128685033C35A1100C8
:1029F000AA180932FF321278D2009B181B18504ACD
:102A0000944663441F88BF05BF0D36D06B181A006B
:102A10000D32FF3212881933FF3319683B00FFF77C
:102A2000B5FE2AE02868E200121B9300EB18093378
:102A3000FF331B789A0082181288520457D550220F
:102A4000825ADB00D3181B18424A944663441F88FD
:102A5000BF05BF0D3CD1E200121B9300EB180933F8
:102A6000FF331A7892002B689C46624413883A49D7
:102A700019403A4B0B439BB213803900E200121B02
:102A80009300EB1818002130FF300268D219026061
:102A90001A001932FF3210688446674417601D33EC
:102AA000FF331B68002B08D0E200121B900028188F
:102AB0001530FF300268914234D2E200121B9300BD
:102AC000EB180933FF331978280002F0B1F94BE70E
:102AD000E200121B9300EB181A000F32FF3212882B
:102AE0001933FF3319683B00FFF750FEB3E750225C
:102AF000825ADB00D3181B18114A944663441F887E
:102B0000BF05BF0DA7D0E200121B9300EB181A00FF
:102B10001132FF3212881933FF3319683B00FFF777
:102B200035FE98E7E100091B8A00AA180932FF3236
:102B300011783A002800FFF71FFB15E78F0F000000
:102B4000060400000080FFFF8FBFFFFF8080FFFFB3
:102B50000F8FFFFF020400000F0F0000C080FFFF77
:102B60002868E200121B9300EB1828331B789A00A8
:102B70008218128852064ED55022825ADB00D31892
:102B80001B18384A944663441B889B059B0DE10043
:102B9000091B8A001100AA181364002B35D1E2002A
:102BA000121B9300EB1828331A7892002B689C466E
:102BB000624413882C4919402C4B0B439BB2138061
:102BC00028685023C25AE100091B8B00EB1819003A
:102BD00028310978C9005218121822498C466244DB
:102BE00012889205920D1A64996B8C4662449A631E
:102BF000DB6B002B28D1E3001C1BA300EB18283350
:102C00001978280002F023F9DCE56918CA8D896B70
:102C1000FFF798FCC3E75022825ADB00D3181B1839
:102C2000134A944663441B889B059B0DE100091BD6
:102C30008A001100AA181364002BB0D069180A8EFC
:102C4000896BFFF77FFCAAE7E1000C1BA100691864
:102C5000283109782800FFF789FCB3E5002003B08C
:102C6000F0BDC046020400000F0F000080C0FFFF4F
:102C70000604000070B5040044230268D35A1BB256
:102C8000002B46DB236844229A5A520544D4236819
:102C900044229A5A520404D544215A5A34480240D4
:102CA0005A52236844229A5A920404D544215A5A0B
:102CB000304802405A52236844229A5AD20438D4E7
:102CC000236844229A5A120513D54422995A2A4855
:102CD0000140995220684023C15A08252943C15216
:102CE0002068C15A04252943C15223689B5ADB043A
:102CF00031D5236844229A5A920530D4236844225D
:102D00009A5AD20504D544215A5A1C4802405A52B4
:102D100070BDFFF751FDB5E744215A5A18480240EB
:102D20005A52200002F0A7F800212000FEF742FFCF
:102D3000ADE74022995A042081439952114B2168F2
:102D40008B52200002F0BAF8216844228B5A0E48B8
:102D500003408B52B4E7200002F09EF8C9E74421FB
:102D60005A5A0A4802405A52200002F07DF8C5E73C
:102D7000FFBFFFFFFFDFFFFFFFF7FFFFFFFEFFFFCC
:102D8000FFFBFFFF00BDFFFFFFEFFFFFFFFDFFFFAA
:102D900010B50C060FD57F242140CC00611A8C00A1
:102DA00028340019002A0DD001228272C3801B0C26
:102DB0000381002010BDCC00611A8C000934FF345F
:102DC0000019EFE782728380F3E7000070B582B0EC
:102DD00004000368DB072BD5B34B5A680C23134060
:102DE000042B1DD0B04B5A680C231340082B0ED077
:102DF0006368012B41D0002B56D1AB4B1A68AB490D
:102E00000A401A601A68AA490A401A603BE0A64BB9
:102E10005B68C02252021340802252029342E7D1E3
:102E2000A14B1B689B0303D56368002B00D1F1E124
:102E300023689B0778D59C4B5B680C221A4262D0B2
:102E4000994B5A680C231340082B53D0E368002B8E
:102E500000D18BE0944A136801210B431360FEF705
:102E600003FD0500904B1B689B0776D4FEF7FCFC26
:102E7000401B0228F6D90320CFE18B4A116880233A
:102E80005B020B4313606368002B25D0FEF7ECFC5C
:102E90000500854B1B689B03CAD4FEF7E5FC401B6D
:102EA0006428F6D90320B8E1052B09D07E4B1A68B7
:102EB0007E490A401A601A687D490A401A60E2E7B2
:102EC000794B19688022D2020A431A60196880225D
:102ED00052020A431A60D6E7FEF7C6FC0500724BA1
:102EE0001B689B03A4D5FEF7BFFC401B6428F6D9E2
:102EF000032092E16C4B5B68C02252021340802297
:102F000012029342A2D1684B1B689B0704D5E36869
:102F1000012B01D0012080E163490B68F822934323
:102F20002269D20013430B6023681B0744D5E36971
:102F3000002B2ED05C4A536A01210B435362FEF7EB
:102F400093FC0500584B5B6A9B0735D4FEF78CFC5D
:102F5000401B0228F6D903205FE153490B68F82291
:102F600093432269D20013430B60DDE74E4A136896
:102F700001218B431360FEF777FC05004A4B1B6869
:102F80009B07D1D5FEF770FC401B0228F6D9032021
:102F900043E1454A536A01218B435362FEF764FCC7
:102FA0000500414B5B6A9B0706D5FEF75DFC401BA5
:102FB0000228F6D9032030E123685B0700D47FE0C4
:102FC000394BDB69DB001DD4374AD16980204005CD
:102FD0000143D161D36903400193019B0125354B26
:102FE0001B68DB0510D5A368012B21D0002B36D13F
:102FF0002D4B1A6A01218A431A621A6A03318A43E5
:103000001A621AE00025EAE72A4A116880235B0069
:103010000B431360FEF728FC0600264B1B68DB05FC
:10302000E1D4FEF721FC801B6428F6D90320F4E0EC
:103030001D4A136A01210B431362A368002B24D09D
:10304000FEF712FC0600184B1B6A9B0736D4FEF7EE
:103050000BFC801B184B9842F5D90320DDE0052BB3
:1030600009D0114B1A6A01218A431A621A6A033184
:103070008A431A62E1E70C4B1A6A04210A431A6276
:103080001A6A03390A431A62D7E7FEF7EDFB060016
:10309000054B1B6A9B0711D5FEF7E6FB801B064B11
:1030A0009842F5D90320B8E000100240FFFFFEFF70
:1030B000FFFFFBFF0070004088130000012D33D09C
:1030C0002368DB0610D56369012B33D0053351D15A
:1030D000544A536B04218B435363536BF4318B433A
:1030E000A169C9000B435363236A002B00D193E00D
:1030F0004C4A51680C220A40082A00D18FE0022B6A
:103100004FD0484A136848490B401360FEF7ACFBA8
:103110000400444B1B689B017AD5FEF7A5FB001BFE
:103120000228F6D9032078E03E4AD3693F490B4094
:10313000D361C5E73B4B5A6B04210A435A635A6B70
:1031400003390A435A63FEF78FFB0500354B5B6B6F
:103150009B0706D4FEF788FB401B0228F6D9032004
:103160005BE030494B6BF8229343A269D2001343D2
:103170004B63B9E72B4B5A6B04210A435A635A6BD2
:1031800003398A435A63FEF76FFB0500254B5B6BDF
:103190009B07A9D5FEF768FB401B0228F6D9032040
:1031A0003BE0204A136820490B401360FEF75CFBAC
:1031B00005001C4B1B689B0106D5FEF755FB401B09
:1031C0000228F6D9032028E0164BDA6A0F218A4339
:1031D000E16A0A43DA625A6815490A40A16A606ADC
:1031E00001430A435A601968802252040A431A6054
:1031F000FEF73AFB04000B4B1B689B0106D4FEF75D
:1032000033FB001B0228F6D9032006E0002004E06F
:10321000002002E0012000E0002002B070BD01208B
:10322000FBE7C04600100240FFFFFFFEFFFFFFEF7D
:10323000FF7FC2FF30B589B004AA1A4B180032C80C
:1032400032C2110002680A606A46103313CB13C2FF
:103250001B681360144B5A680C231340042B03D0D3
:10326000082B04D0114800E0114809B030BD910C82
:103270000F23194004A8445C0B49C96A0B406946F6
:10328000C95CC0235B021A4080235B029A4204D0CF
:103290000648FCF739FF6043E7E70548FCF734FFD1
:1032A0006043E2E7785200080010024000127A0002
:1032B0000024F40070B505000C004D4B1A68012382
:1032C00013408B420BD24A490B680122934323439C
:1032D0000B600B681A40A24201D0012070BD2B6820
:1032E0009B0706D5434A5368F0218B43A9680B43DB
:1032F00053602B68DB074BD56B68012B20D0022B6A
:1033000024D03C4A126892076FD53A494A68032094
:10331000824313434B60FEF7A7FA06006B68012B4C
:103320001AD0022B26D0334B5B680C221A422FD0C6
:10333000FEF79AFA801B304B9842F4D90320CDE770
:103340002C4A12689203E0D40120C7E7294A126888
:103350009201DAD40120C1E7264B5A680C231340AE
:10336000042B15D0FEF780FA801B234B9842F3D92B
:103370000320B3E71F4B5A680C231340082B07D0D8
:10338000FEF772FA801B1C4B9842F3D90320A5E785
:10339000174B1A6801231340A3420BD914490B6839
:1033A0000122934323430B600B681A40A24201D0D1
:1033B000012093E72B685B0706D50E4A53680F4937
:1033C0000B40E9680B435360FFF734FF094B5A6821
:1033D00012090F2313400A4AD35CD840094B1860E6
:1033E0000020FEF717FA002078E7012076E7C046B4
:1033F000002002400010024088130000FFF8FFFF89
:10340000F852000818010020014B18687047C046A8
:103410001801002070B582B004000368DB0335D5C5
:10342000414BDB69DB0052D43F4AD1698020400523
:103430000143D161D36903400193019B01253B4BBB
:103440001B68DB0545D5384B1B6AC0229200134030
:1034500013D061680A409A420FD0334B186A344A3D
:1034600002401E6A8021490231431962196A314EB5
:10347000314019621A62C3073FD42B4A136A2C49A0
:103480000B4061680B431362012D45D02368DB07B5
:1034900006D5254A136B03218B43A1680B431363A5
:1034A00023689B0606D5204A136B10218B43E168E5
:1034B0000B43136323689B0333D51B4A136B802193
:1034C0008B4321690B431363002002B070BD0025BC
:1034D000B5E7164A116880235B000B431360FEF7C3
:1034E000C3F90600114B1B68DB05ACD4FEF7BCF931
:1034F000801B6428F6D90320E7E7FEF7B5F906003C
:10350000094B1B6A9B07B8D4FEF7AEF9801B0A4B28
:103510009842F5D90320D8E7D36908490B40D36115
:10352000B4E70020D1E7C046001002400070004020
:10353000FFFCFFFFFFFFFEFF88130000FFFFFFEF10
:1035400030B5036A046A0125AC4304628469EF352F
:10355000AC43120122430A24A3431943826101624E
:1035600030BD000030B5036A1024A34303628469B0
:10357000036A054D2C4012032243A024A3430901F2
:1035800019438261016230BDFF0FFFFF8368702223
:1035900093430722114319438160704710B53D22C0
:1035A000022383540468236801210B432360815460
:1035B000002010BD0368DA6801210A43DA6002685E
:1035C00013680B43136000207047704770477047C3
:1035D0007047704710B5040003681A6992070FD549
:1035E000DA6892070CD5032252421A61012303774D
:1035F00003689B699B0763D0FFF7E9FF00232377EC
:1036000023681A69520712D5DA6852070FD50522C6
:1036100052421A610223237723689A69C0239B00D0
:103620001A4253D02000FFF7D2FF002323772368EC
:103630001A69120710D5DA6812070DD5092252420D
:103640001A61042323772368DB699B0745D0200098
:10365000FFF7BDFF0023237723681A69D20612D52E
:10366000DA68D2060FD5112252421A610823237755
:103670002368DA69C0239B001A4235D02000FFF787
:10368000A6FF0023237723681A69D20702D5DA68D8
:10369000D20730D423681A69120602D5DA681206F6
:1036A00030D423681A69520602D5DA68520630D43B
:1036B00023681A69920602D5DA68920630D410BDE2
:1036C000FFF784FF2000FFF783FF97E72000FFF755
:1036D0007DFF2000FFF77CFFA7E72000FFF776FFC4
:1036E0002000FFF775FFB5E72000FFF76FFF200010
:1036F000FFF76EFFC5E7022252421A612000FFF772
:1037000064FFC7E7812252421A61200000F02BF9C2
:10371000C7E7412252421A612000FFF75AFFC7E76C
:10372000212252421A61200000F01CF9C7E7000074
:1037300003681A4A904202D0194A904203D170227B
:1037400093434A681343154A90420BD0144A90425F
:1037500008D0144A904205D0134A904202D0134A2E
:10376000904203D1124A1340CA6813438022934304
:103770004A69134303608B68C3620B688362074B1B
:10378000984205D0084B984202D0084B984201D18C
:103790000B690363012343617047C046002C01405D
:1037A0000004004000200040004401400048014067
:1037B000FFFCFFFF70B5041E14D03D23C35C002B3B
:1037C0000AD03D2502236355211D2068FFF7B0FF75
:1037D00001236355002070BD3C330022C25401F028
:1037E000BFF8EEE70120F6E730B58468034D2C40C2
:1037F0001B021A4311432143816030BDFF00FFFFCC
:1038000010B504003C23C35C012B00D17FE03C23B6
:103810000122C25401330132C254026893683D4808
:10382000034093600B68402B5DD010D9702B43D0C0
:1038300020D8502B4DD0602B36D1CA6849682068FB
:10384000FFF790FE60212068FFF7A0FE2CE0102B10
:1038500053D008D9202B55D0302B25D130212068CA
:10386000FFF794FE20E0002B1ED100212068FFF717
:103870008DFE19E080225201934210D080229201E5
:10388000934211D1CB684A6889682068FFF7ACFF82
:10389000226891688023DB010B43936004E0226877
:1038A000936807218B4393603D230122E254013B3F
:1038B0000022E254002010BDCB684A688968206865
:1038C000FFF792FF2268936877218B430B43936045
:1038D000EAE7CA6849682068FFF732FE502120688D
:1038E000FFF754FEE0E7CA6849682068FFF728FE42
:1038F00040212068FFF74AFED6E710212068FFF735
:1039000045FED1E720212068FFF740FECCE70220EA
:10391000D1E7C0468800FFFFF0B53C23C35C012B14
:103920001ED03C22012585543D2402230355066800
:1039300073687027BB437360066873680F683B4306
:1039400073600668B3688027BB43B3600668B368DA
:1039500049680B43B3600555002383540020F0BD34
:103960000220FCE770477047024B034A5A60034A43
:103970005A6070470020024023016745AB89EFCDB4
:10398000034BDB680120184043425841C0B27047E6
:10399000002002400068704710B50A4B1A690221E6
:1039A0000A431A6158611A693E310A431A61FFF7E6
:1039B000E7FF0028FBD0034A136902218B43136100
:1039C00010BDC0460020024070B505000C000D4A35
:1039D000136901210B431361FFF7D2FF0028FBD0CD
:1039E000A3B22B80FFF7CCFF0028FBD0240C6C8007
:1039F000FFF7C6FF0028FBD0024A136901218B4361
:103A0000136170BD0020024086239B00C358002B29
:103A100005D0852292000021995000207047022095
:103A2000FCE7000010B586239B00C4580433C3583C
:103A3000002B0DD080229200A05CFF2808D09B684C
:103A4000044AA25C2100984780239B00FF22E25495
:103A5000002010BD0102000043230380004870478E
:103A60000000002043230380014844307047C046D3
:103A70000000002043230380014808307047C046FF
:103A8000800000200A23038001484C307047C04664
:103A90008000002070B504008626B600855901F02C
:103AA000CAFA83239B00E850A359002B0BD087232D
:103AB0009B00E358DB6883229200A918083AA858B3
:103AC0009847002070BD0220FCE7000070B505009B
:103AD0000C0086239B00C6580978B93BFF3B0B407E
:103AE0002AD0202B0AD1E288002A09D187239B0003
:103AF000C3589B686078002221009847002070BD61
:103B000049B200290CDAFD33FF33C3589B68607853
:103B100031009847E2883100280000F0DCFCEDE736
:103B2000627880239B00F254E288074BF254E288CB
:103B3000310000F0E6FCE1E763780A2BDED10122D8
:103B4000024900F0C8FCD9E70102000098010020FA
:103B500070B50400812101F01EFA0121200001F05E
:103B60001AFA8221200001F016FA86239B00E358FE
:103B7000002B0BD087239B00E3585B689847862572
:103B8000AD00605901F062FA00236351002070BD5E
:103B900070B50400037C002B34D18025AD002B00D0
:103BA0000222812101F0EBF92B00022201212000E9
:103BB00001F0E5F9082303228221200001F0DFF95A
:103BC0008720800001F03EFA050086239B00E0502C
:103BD00000282DD00433E3581B6898470023852222
:103BE0009200AB500432AB50237C002B16D08123C3
:103BF0009B00EA58C53BFF3B0121200001F012FA6F
:103C0000002070BD40230222812101F0B8F9402339
:103C100002220121200001F0B2F9CBE78033143AEF
:103C2000AA589B000121200001F0FCF90020E8E7E0
:103C30000120E6E7002904D087239B00C150002023
:103C400070470220FCE786239B00C3588220800037
:103C50001950842189005A500020704786239B0008
:103C6000C258143BD1500020704710B586239B00EA
:103C7000C258002A16D0037C002B09D081239B0058
:103C8000D258C53BFF3B012101F0CCF9002010BD0B
:103C900080338121890052589B00012101F0C2F933
:103CA0000020F4E70220F2E710B5002816D08523A3
:103CB0009B00C358002B03D085239B000024C450D5
:103CC000002902D084239B00C150FE235B00012108
:103CD000C154027001F008F9002010BD0220FCE779
:103CE000002904D085239B00C1500020704702208A
:103CF000FCE710B501F03AF9002010BD10B585239E
:103D00009B00C358002B07D01B689847002801D19F
:103D1000002010BD0220FCE70220FAE710B5852341
:103D20009B00C3585B689847002010BD70B5040025
:103D300082239B00C518280000F02CF9FA235B00B1
:103D40000122E250124BE25A163BE2501033E15C82
:103D5000EA3BFF3B0B40012B0FD0002B07D0022B7F
:103D600010D07F239943200001F01EF903E02900C1
:103D7000200000F0B3FA002070BD2900200000F000
:103D8000D1FAF8E72900200000F0EBFAF3E7C0468B
:103D90000E02000010B504001300002929D1FA22F8
:103DA00052008258032A01D0002010BD421DFF326C
:103DB0009168D26891420FD885239B00C3581B6934
:103DC000002B05D0FE225200825C032A00D19847C6
:103DD000200000F0AEFBE7E7891A0530FF30816074
:103DE0008A4200D90A0092B21900200000F099FB23
:103DF000DAE785239B00C3589B69002BD4D0FE22B1
:103E00005200825C032ACFD19847CDE770B50400F9
:103E1000130000294ED1FA2252008258022A06D0FD
:103E200080239B00E35C012B3FD0002070BDC26962
:103E3000056AAA421ED8866929003000FCF7EAF913
:103E4000002906D1B54204D8FC235B00E3589E420A
:103E50001DD385239B00E358DB68002B06D0FE2290
:103E60005200A25C032A01D120009847200000F0F4
:103E70006CFBD5E7521BC26192B2190000F039FB0E
:103E8000002300220021200001F0CCF8C8E7002226
:103E9000200000F02EFBFC235B000022E2500023F8
:103EA0000021200001F0BEF8BAE780239B00002229
:103EB000E254BAE785239B00C3585B69002BB4D05A
:103EC000FE225200825C032AAFD19847ADE770B55D
:103ED000040040230022002101F051F840258823EE
:103EE0005B00E550D03B00228021200001F047F824
:103EF0002562FE235B000122E2541C33E358002BB1
:103F000006D085239B00E3585B6821792000984701
:103F1000002070BD017400207047FE235B00C15C6F
:103F2000FE22FF328154FA3AFF3AC2540020704711
:103F3000FE23FF33C25C013BC2540020704710B522
:103F4000FE235B00C35C032B01D0002010BD852342
:103F50009B00C358DB69002BF7D09847F5E70300B7
:103F6000002002E00130C0B201331A78002AF9D1F2
:103F7000704710B504004B88012B0AD181239B00A8
:103F80000122C2501033C3589B689847200000F0AC
:103F9000D0FA10BD0B7803704B7843708B78CA78D9
:103FA00012029B1843800B794A7912029B18838076
:103FB0008B79CA7912029B18C380704710B5040030
:103FC000802100F0F1FF0021200000F0EDFF10BD86
:103FD00030B583B004000D004A88130A072B00D9BE
:103FE0008EE09B004F49CB589F4684239B00C358CB
:103FF0001B68007C6A46911D98476B4606331B88F8
:10400000002B03D0EA88002A00D07EE003B030BD48
:10401000037C002B09D185239B00C3589B6A6A4609
:10402000901D984702234370E7E785239B00C35800
:10403000DB6A6A46901D984702234370DDE7D2B2DF
:10404000052A39D89200384B9B589F4684239B0001
:10405000C3585B68007C6A46911D9847CDE784236E
:104060009B00C3589B68007C6A46911D9847C4E733
:1040700084239B00C358DB68007C6A46911D9847E7
:10408000BBE784239B00C3581B69007C6A46911DD3
:104090009847B2E784239B00C3585B69007C6A465B
:1040A000911D9847A9E784239B00C3589B69007C16
:1040B0006A46911D9847A0E72900FFF77FFFA5E713
:1040C000037C002B07D185239B00C3585B6B6A469A
:1040D000901D984791E72900FFF770FF96E7037C52
:1040E000002B09D185239B00C3581B6B6A46901D8A
:1040F00098470723437080E72900FFF75FFF85E7B4
:1041000029002000FFF75AFF80E7191C934200D9CD
:10411000111C8AB26B46D9800100200000F0DBF947
:1041200074E7C04698520008B852000870B5040001
:104130008B88002B22D1CB88002B1FD18B787F2539
:104140001D40FE235B00C35C032B0FD0FF235B00ED
:10415000C554290000F054FF200000F0EAF9002DBA
:1041600007D0FE235B000222E2540AE0FFF726FF9D
:1041700007E0FE235B000122E25402E02000FFF78B
:104180001DFF70BD70B504000D008978284B1970B3
:1041900001290AD8FE235B00C35C022B09D0032B44
:1041A0001ED02900FFF70AFF02E02900FFF706FFF3
:1041B00070BD002911D04160FE235B000322C25470
:1041C000FFF79CFD022803D0200000F0B2F9EFE7D2
:1041D00029002000FFF7F2FEEAE700F0AAF9E7E77E
:1041E000002911D0436899421ED0D9B2FFF796FD3D
:1041F0000F4B197861602000FFF780FD02280ED078
:10420000200000F096F9D3E7FE235B000222C2549F
:104210004160FFF783FD200000F08BF9C8E729001B
:104220002000FFF7CBFEC3E700F083F9C0E7C046EC
:104230009901002010B5CB88012B09D1FE235B002A
:10424000C35C022B07D0032B0DD0FFF7B7FE01E0B4
:10425000FFF7B4FE10BD0023836001000831012286
:1042600000F039F9F6E7011D012200F034F9F1E719
:1042700010B5FE235B00C35C023BDBB2012B0ED802
:104280000123C36081239B00C358002B01D003236B
:10429000C36001000C31022200F01DF910BDFFF7D0
:1042A0008DFEFBE710B50400FE235B00C35C023B00
:1042B000DBB2012B0ED84B88012B0AD181239B0046
:1042C0000022C2501033C3589B689847200000F06A
:1042D00030F910BDFFF772FEFBE7000010B54B7818
:1042E000092B19D89B000E4AD3589F46FFF770FE42
:1042F000002010BDFFF71AFFFAE7FFF743FFF7E7CB
:10430000FFF798FFF4E7FFF7B3FFF1E7FFF731FEA0
:10431000EEE7FFF7C7FFEBE7FFF750FEE8E7C04621
:10432000D052000870B504000D00FE235B00C35C92
:10433000032B13D10B79012B0DD885239B00C35878
:104340009B689847EB88002B01D0002070BD2000AF
:1043500000F0EFF8F9E7FFF731FEF6E7FFF72EFE82
:10436000F3E770B505000C008A88D1B2207860238D
:104370000340202B08D1F533FF33EB589B68210015
:1043800028009847002070BD6378012B2CD0002BAB
:1043900052D0032BF6D1FA33FF33EB5C022B06D05D
:1043A000032B0CD021002800FFF708FEEAE70029C4
:1043B000E8D08029E6D0280000F0F6FDE2E7638827
:1043C000002B06D1002904D0802902D0280000F05B
:1043D000EBFD85239B00EB589B6821002800984744
:1043E000280000F0A6F8CDE7FE235B00EB5C022B73
:1043F00006D0032B0CD021002800FFF7DFFDC1E71A
:104400000029BFD08029BDD0280000F0CDFDB9E73C
:104410006388002BB6D14B0603D1280000F089F841
:10442000B0E7280000F0C9FD85239B00EB589B688E
:10443000210028009847F0E7FE235B00EB5C022B8D
:1044400006D0032B0AD021002800FFF7B7FD99E71B
:104450004B0697D0280000F0A7FD93E7130612D46F
:104460007F240C40103424012C190434280000F05F
:10447000ADFD00280ED00123236002222100280078
:1044800000F029F87EE77F240C40013424012C1928
:104490000434EBE700232360EFE770B504000D0060
:1044A0001600002816D0FFF75AFD0130400080B2F8
:1044B0003080287003236B70013B08E001345A1CE4
:1044C000D2B2E9540233DBB2AA180021117021786C
:1044D0000029F3D170BD10B51300FA225200022456
:1044E00084508361C3610A00002100F092FD002026
:1044F00010BD10B513000A00002100F08AFD002055
:1045000010BD10B51300FA22520003248450EC3A77
:104510008350043283500A00002100F083FD002004
:1045200010BD10B513000A00002100F07BFD002033
:1045300010BD10B5FA235B000422C25000230022F4
:10454000002100F066FD002010BD10B5FA235B00CD
:104550000522C25000230022002100F063FD00204C
:1045600010BD0000F0B589B01422002103A800F0AE
:104570006FFE184B59698020C003014359615A6985
:1045800002400192019A5A69802189020A435A61C4
:104590005B690B400293029B9024E40500221121E9
:1045A0002000FDF795FA01270397112304930026B5
:1045B00005960325069503A92000FDF7C3F91023EE
:1045C000039304970596069503A92000FDF7BAF911
:1045D00009B0F0BD0010024030B587B010220021B4
:1045E00002A800F035FE08220021684600F030FEE7
:1045F0000E4C0F4B236000256560A5600D4BE360FA
:1046000025616561A5612000FFF7D4F880235B0177
:10461000029302A92000FFF7F3F80095019569467F
:104620002000FFF779F907B030BDC046D403002061
:10463000002C01407FBB0000F0B572B6002663E09D
:104640009022D205546901273C435461C046C046BC
:10465000C046C046C046C046C046C046C046C0462A
:10466000C046C046C046C046C046C046C046546963
:10467000BC435461C046C046C046C046C046C04662
:10468000C046C046C046C046C046C046C046C046FA
:10469000C046C046C046013B002B33DBAA0014587D
:1046A00001229A402242CBD09022D20554690127A0
:1046B0003C435461C046C046C046C046C046C046A2
:1046C000C046C046C046C046C046C046C046C046BA
:1046D000C046C046C046C046C046C046C046C046AA
:1046E000C046C046C046C046C046C046C046C0469A
:1046F000C046C0465469BC435461C046C046C0462B
:10470000C046C8E70136F6B235008E4201D2172303
:10471000C2E762B6F0BD10B596B0282200210CA801
:1047200000F096FD1022002106A800F091FD142251
:10473000002101A800F08CFD01230A930B930224B1
:10474000129480235B0213938023DB0214930AA844
:10475000FEF73CFB07230693079400230893099375
:10476000012106A8FEF7A6FD80239B02019380236A
:10477000059301A8FEF74EFE16B010BDF0B583B04C
:10478000FDF75AF8FFF7C7FFFFF7ECFEFFF724FF2E
:1047900000F0B0F9FFF7E8F85948FFF7FBF8594B7C
:1047A0001860FE2801D91E221A60564B1868FCF7C3
:1047B0005DFF0022544BFCF7ADFC02000B00002013
:1047C0005249FCF7A5F9FCF783FF514B1860FE2115
:1047D0008905FBF74BFD002803D04D4BFE229205C7
:1047E0001A60002747E0F01BFCF740FF0022494B0E
:1047F000FCF790FC04000D003000FCF737FF009040
:10480000019102000B0020002900FCF781F9FCF760
:104810005FFF041C3800FCF7EFFE00223D4BFCF765
:1048200079FC009A019BFCF773F9FCF751FF0090AB
:10483000374B1D68211C281CFBF70AFEFBF72AFDDD
:10484000C4B20099281CFBF703FEFBF723FDC0B29E
:104850002302C3183048BA00135003603100FFF739
:10486000EBFE284B1968AF208000FBF74DFCFDF7ED
:1048700001F80137FFB2234B1E68B742B3D396202D
:104880004000FCF7F7FF1F4B19685960002305E053
:104890009800214A002484500133DBB29942F7D8B2
:1048A0001D48FFF7C9FE1D4C2000FEF777FE2000D3
:1048B000FEF780FE134B01221A7207E00120FCF77D
:1048C000D9FF104B1A685B689A420CD1104B1B79C8
:1048D000002BF3D00B4B19680F48FFF7ADFE0C4BC4
:1048E00000221A71EAE7064D2800FFF755F8054C3B
:1048F00021682800FFF768F823686360E6E7C04690
:10490000007C00089C0100200000384000407F40EF
:104910001001002000E06F4014040020D4030020A8
:104920007047000082B00C4B9969012211439961D4
:1049300099690A400092009ADA69802149050A4380
:10494000DA61DB690B400193019B044A1368102173
:104950000B43136002B0704700100240000001409A
:1049600000B583B00268104B9A4201D003B000BD7D
:104970000E4A9169802000010143916193690340CF
:104980000193019B002200210D20FCF785FF0D20E3
:10499000FCF7B2FF002200210E20FCF77DFF0E2065
:1049A000FCF7AAFFE2E7C046002C014000100240DD
:1049B0007047FEE77047704710B5FCF74DFF10BD1C
:1049C00010B5244B1B68002B12D0224B1B68142BF4
:1049D00015D0204B1A68541C1C60C82C16D0FA2322
:1049E0005B009C4221D01C4B9C422ED9002323E02B
:1049F000902000221021C005FDF76AF8E5E790201D
:104A000001221021C005FDF763F8E2E7134B0022F5
:104A10001A70E4E79900124A002088500133F92BFC
:104A2000F8DD104B01221A70DDE70023F7E799004B
:104A30000B4A002088500133F92BF8DD094B012285
:104A40001A70044B962292001A600748FEF7C2FDC6
:104A500010BDC046A801002010270000A5010020BD
:104A60001404002014010020D403002010B50248D3
:104A7000FEF7B0FD10BDC046D403002010B50248BB
:104A8000FEF7F8F810BDC046940D0020134B1A68CD
:104A900001210A431A605A68114802405A601A6894
:104AA000104802401A601A680F4802401A605A689B
:104AB0000E4802405A60DA6A0F208243DA621A6BAB
:104AC0000B4802401A631A6B802002431A635A6B28
:104AD0008A435A6300229A607047C0460010024021
:104AE0000CB8FF08FFFFF6FEFFFFFBFFFFFFC0FF54
:104AF0006CFEFFFF10B5002211491248FFF7D4F8F1
:104B0000002811D110490F48FFF7EAF800280ED10C
:104B10000E490C48FFF78EF800280BD10948FFF723
:104B2000E8F8002809D110BDFFF7FAFEEAE7FFF721
:104B3000F7FEEDE7FFF7F4FEF0E7FFF7F1FEF2E72F
:104B40006001002010080020D80000201C01002077
:104B50000020704700207047F0B5DE4657464E46AD
:104B60004546E0B583B0060088467E4C0100200033
:104B7000FFF774F82000FFF778F87B4B00221A60EB
:104B80007A4B1B78002B00D1E4E00025BAE0784B8B
:104B90001F6803213800FBF7B7FA82460090305DAA
:104BA000FBF76CFF734B1968FBF752FCFBF772FBCA
:104BB000814603213800FBF72DFB00291DD16E48EB
:104BC00053469B009C466D4B624612581A409246D3
:104BD0004B465A004A4413020193FF2212029346A5
:104BE000624612585B461A40019B9B189B085A4626
:104BF0001340524613436246135001290BD0022939
:104C000028D05F4B1A6853009B189F4236D001375B
:104C1000574B1F6080E0584B9A46009B9B009C4678
:104C200052469B581B041B0C01934B465A004A44A6
:104C30001304FF2212049346624650461258584607
:104C400002409B189B080340019A1343624650465A
:104C50001350D4E74849009B9B009A46494A5B5849
:104C60001A404B465B009944FF235046405803408E
:104C70004B449B08D31852465350C2E70023424A84
:104C80001370424A01211170394A136044E03E4BCF
:104C900006221A7044E03C4B05221A70305D013048
:104CA000374B1860FCF7E2FC0022394BFCF732FA74
:104CB00002000B0000203749FBF72AFFFCF708FD34
:104CC0002C4B1860FE218905FBF7D0FA00282BD069
:104CD000284BFE2292051A6026E02B4B04221A7004
:104CE00026E0294B1B78022B26D1274B03221A7072
:104CF00022E0254B1B78012B21D1234B02221A7075
:104D00001DE001352C0043461B68AB4222D91E4BE7
:104D10001B78062B00D13AE71B4B1B78052BB6D02E
:104D2000194B1B78042BB6D0174B1B78032BD4D010
:104D300034192378612BD4D02378642BD9D02378ED
:104D4000412BDED1104B1B78002BDAD10E4B012208
:104D50001A70D6E7002003B03CBC90469946A246A4
:104D6000AB46F0BD10080020A8010020A4010020DF
:104D7000AC0100201001002014040020FF00FF00FF
:104D80009C01002000FFFF00A5010020140100206D
:104D90000000384000407F4010B5064C0022064914
:104DA0002000FEF750FF05492000FEF757FF0020C6
:104DB00010BDC04610080020540D0020340A002009
:104DC000002803D0022803D0022070470020FCE70F
:104DD0000120FAE710B5FFF79EFC10BD00B583B0C7
:104DE00002680C4B9A4201D003B000BD0A4AD16957
:104DF000802000040143D161D36903400193019BEA
:104E0000002200211F20FCF747FD1F20FCF774FD46
:104E1000EAE7C046005C00400010024010B5010007
:104E200087239B00C058ED31FF31FEF77FFF10BD97
:104E300010B50300872292008058CA00521A9400CD
:104E40001B191933FF331A68FEF7A4FF10BD10B504
:104E50000300872292008058CA00521A94001B193E
:104E60009A6BFEF7D3FF10BD10B587239B00C05887
:104E7000FFF765F810BD70B504008368022B01D000
:104E8000FFF74EFD8725AD0001216059FFF742F87D
:104E90006059FFF71CF870BD10B5040087239B0014
:104EA000C058FFF73AF8A369002B04D0024A1369EF
:104EB00006210B43136110BD00ED00E010B50400A6
:104EC0008369002B05D187239B00E058FFF730F85A
:104ED00010BD044A136906218B431361FFF77AFF63
:104EE000F1E7C04600ED00E070B504001D488723DF
:104EF0009B00C4500433E0501B4B03600823436005
:104F0000063B8360036100238361C3610362FCF796
:104F1000E5FD002823D18825AD00182300220021BB
:104F20006059FDF735FF5823002280216059FDF7B5
:104F30002FFFC023002281216059FDF729FF88231C
:104F40005B00002201216059FDF722FF6059802398
:104F50005B0000228221FDF71BFF002070BDFFF7E0
:104F6000DFFCD8E7940D0020005C004010B58823DA
:104F70009B00C058FCF712FEFFF722FF10BD10B5D2
:104F800014001A0088239B00C0582300FCF72EFE53
:104F9000FFF716FF10BD10B588239B00C058FCF723
:104FA000EFFFFFF70DFF10BD10B588239B00C05821
:104FB000FDF7EEF9FFF704FF10BD10B588239B0045
:104FC000C058FDF749FAFFF7FBFE10BD0A00882321
:104FD0009B00C35849B2002909DB7F211140CA0058
:104FE000511A8A009B180B33FF33187870477F21C2
:104FF0001140C800411A8A009B182A331878F5E737
:1050000010B588239B00C058FCF7D4FDFFF7D8FEED
:1050100010BD10B58824A4000059FDF7A7FAFFF7CA
:10502000CFFE10BD10B58824A4000059FDF7A4F8E8
:10503000FFF7C6FE10BD10B588239B00C058FDF7D2
:105040009DF910BD00487047B00100207047000076
:1050500012230B80004870472C01002004230B8092
:10506000014814307047C0462C01002030B50023A1
:105070000AE05D0037344C5500015C0001340C1926
:10508000002525700133DBB2934206D2040F092CB0
:10509000EFD85D0030344C55EEE730BD70B50B4BAA
:1050A00018680B4B1D680B4B1B68C018002800D1FB
:1050B00070BD094C21001A310822FFF7D7FF2100EB
:1050C0002A3104222800FFF7D1FFF1E7ACF7FF1FD8
:1050D000B0F7FF1FB4F7FF1F2C01002010B51A23F3
:1050E0000B80FFF7DBFF0148183010BD2C010020BA
:1050F00010B50A00002805D005490648FFF7CDF98C
:10510000034810BD02490348FFF7C7F9F8E7C04656
:10511000B40F0020D053000810B50A00034C210042
:105120000348FFF7BAF9200010BDC046B40F0020B5
:10513000E853000810B50A00002805D005490648C4
:10514000FFF7ABF9034810BD02490348FFF7A5F983
:10515000F8E7C046B40F0020FC53000810B50A0061
:10516000002805D005490648FFF797F9034810BD08
:1051700002490348FFF791F9F8E7C046B40F002051
:10518000085400081348854613480168090E134A5D
:10519000914205D112481349016013481349016037
:1051A00013481449144A002302E0D458C45004336D
:1051B000C4188C42F9D3114A114C002301E013604A
:1051C0000432A242FBD3FFF761FC00F01DF8FFF7A9
:1051D000D5FAFEE700180020040000001F000000C0
:1051E0001810024001000000000001400000000013
:1051F000000000207C010020205400087C010020D9
:10520000B4110020FEE7000070B500260C4D0D4CD7
:10521000641BA410A64209D1002600F021F80A4D13
:105220000A4C641BA410A64205D170BDB300EB5814
:1052300098470136EEE7B300EB5898470136F2E79E
:105240001854000818540008185400081C5400088A
:1052500003001218934200D1704719700133F9E727
:10526000F8B5C046F8BC08BC9E467047F8B5C046C5
:08527000F8BC08BC9E46704723
:1052780002030405060708090A0B0C0D0E0F10108F
:105288000102030405060708090A0B0C0D0E0F108E
:1052980000410008EA3F0008104000083E400008AE
:1052A8000041000800410008C0400008DE40000836
:1052B8004C4000085E40000870400008824000082A
:1052C80094400008A640000806430008124300085E
:1052D800184300080C43000818430008F44200086B
:1052E800EC4200081843000800430008FA4200088E
:1052F800000000000000000001020304060708097E
:10530800000000000102030448050008F204000838
:10531800F204000820060008EE040008EE04000865
:105328001606000820060008EE0400081606000805
:10533800EE040008200600082406000824060008D9
:10534800240600082C060008B40D0008260C0008E6
:105358006A0C0008CE0B00086A0C00085A0D0008F9
:105368006A0C0008CE0B0008260C0008260C000862
:105378005A0D0008CE0B0008C60B0008C60B000823
:10538800C60B0008680D0008CC120008CE110008F2
:10539800CE110008EC140008C8110008C811000854
:1053A800D4140008EC140008C8110008D41400082C
:1053B800C8110008EC140008E2140008E214000800
:1053C800E2140008F014000853544D333220566993
:1053D800727475616C20436F6D506F7274000000B9
:1053E80053544D6963726F656C656374726F6E694F
:1053F8006373000043444320436F6E66696700008F
:1054080043444320496E7465726661636500000019
:04541800E90000089F
:04541C00C1000008C3
:1054200009024300020100C0320904000001020227
:1054300001000524001001052401000104240202DA
:105440000524060001070582030800100904010075
:10545000020A000000070501024000000705810262
:105460004000000009024300020100C032090400AC
:1054700000010202010005240010010524010001C1
:105480000424020205240600010705820308001017
:1054900009040100020A00000007050102000200E1
:1054A000070581020002000009074300020104C051
:1054B0003209040000010202010005240010010568
:1054C00024010001042402020524060001070582CC
:1054D000030800FF09040100020A0000000705019B
:1054E0000240000007058102400000000A06000299
:1054F0000000004001000000913B0008513B000803
:10550000CD3A000800000000253A0008093A0008DA
:10551000953A0008000000000000000000000000B4
:10552000653A0008593A0008753A0008853A0008BB
:10553000CDCCCC3D0100000000127A00994D00084E
:10554000514B0008554B0008594B0008120100024E
:1055500002020040830440570002010203010000E0
:10556000040309041A03000000000000000000000A
:10557000000000000000000000000000000000002B
:10558000515000085D50000819510008F150000802
:0C559000DD500008355100085D51000896
:040000050800518519
:00000001FF
